:100000002FC100000C9445090C9470090C949B09B5
:100010000C94C6090C94F1090C941C0A0C94470A20
:100020000C94720A4EC100004CC100004AC100008D
:1000300048C1000046C1000044C1000042C10000A8
:1000400040C100000C94B50E3CC100003AC1000054
:1000500038C1000036C1000034C100000C94AC0A65
:1000600030C10000CDC700000C9436082AC1000042
:1000700028C1000026C1000024C1000022C10000E8
:100080000C94E20E1EC100001CC100001AC1000049
:1000900018C1000016C1000014C100000C944610E5
:1000A00010C100000EC100000C940F0F0AC1000027
:1000B00008C1000006C1000004C100000C943C0F00
:1000C00000C10000FEC00000FCC00000FAC000003B
:1000D000F8C00000F6C00000F4C00000F2C000004C
:1000E000F0C000001F09E908F108FD080A092B0902
:1000F0003809860B8B0B900B9A0BA40B1D0CAE0BC7
:10010000B60BBE0BC80BD20BDC0BEB0BF50B1D0CAF
:10011000FF0B090C130C3E0C410C300C340C3A0C48
:10012000780C450C490C4F0C530C570C5D0C610CB2
:10013000650C780C6B0C6F0C730C00000A0B020939
:100140000C0D0E0807030401000000000000000071
:10015000000000000000000000000000000000009F
:10016000000000000000121110000000000000005C
:10017000000000000000000000000000000000007F
:1001800001021020200808102040102040800201A9
:10019000020108040201010204081020408080408E
:1001A000201008040201800402018040201008048D
:1001B000020108040201010204081020408001022B
:1001C00004081020408005050505070508080808F3
:1001D000020202020A0A08080404040401010101DF
:1001E00001010101030303030303030304070707DA
:1001F0000C0C0C0C0C0C0C0C02020202060606067F
:10020000060606060B0B0B0B0B0B0B0B000020005E
:100210002300260029002C002F00320000010000DE
:1002200003010601090100002200250028002B001F
:100230002E003100340002010000050108010B010D
:1002400000002100240027002A002D003000330088
:1002500001010000040107010A01F50768081A10EE
:1002600011241FBECFEFD1E2DEBFCDBF00E00CBF37
:1002700012E0A0E0B2E0E2EEF7E200E00BBF02C065
:1002800007900D92A638B107D9F724E0A6E8B2E0AE
:1002900001C01D92A839B207E1F712E0C0E6D2E032
:1002A00000E006C022970109FE010BBF0E947A11EF
:1002B000CA35D10780E00807A9F70E949E0A0C946E
:1002C000EF139ECE21E0FC01228308950895089546
:1002D00081E00895CF93DF93EC018A81E881F98171
:1002E000811108C00190F081E02DCE01199581E0C7
:1002F0008A8315C00680F781E02DCE011995E8812B
:10030000F981882339F00480F581E02DCE0119951B
:1003100081E006C00280F381E02DCE01199580E0D6
:10032000DF91CF910895FC018EE192E0918380836B
:10033000128214820895FC0184810895FC01648373
:100340000895089580E008950F931F93DC0115969A
:10035000ED91FC91169700E010E098014DEC5CECFB
:100360006CE47FE38081918132D21F910F910895D7
:10037000DC011596ED91FC91169740E050E060E0AD
:1003800070E080819181FCC1CF93DF93EC01CBDFE2
:100390008CE292E0998388838DD39E838D83198626
:1003A00018861F82DF91CF910895FC01828193818D
:1003B0000895CF93DF93EC01E881F9810190F081FA
:1003C000E02DCE0119951816190644F4E881F9813B
:1003D0000684F785E02DCE011995EECFDF91CF9100
:1003E00008950F931F93CF93DF93EC018B0184E06B
:1003F00090E00E94A80AFC011382128211830083FC
:100400002C813D81232B29F0EE81FF819383828310
:1004100002C09D838C839F838E838A819B810196FA
:100420009B838A831C8681E0DF91CF911F910F917E
:1004300008950F931F93CF93DF931F921F92CDB711
:10044000DEB78C01DC0112968D919C911397892B5C
:1004500069F4ED91FC910480F581E02DC8010F90C5
:100460000F90DF91CF911F910F91199484E090E04C
:1004700069837A830E94A80AF80124813581DC010E
:1004800013963C932E93129769817A816D937C9396
:1004900095838483828193810196938382831486DA
:1004A00081E00F900F90DF91CF911F910F910895F0
:1004B000EF92FF920F931F93CF93DF93EC018A810A
:1004C0009B81181619061CF50197A1F0EC81FD819E
:1004D00002811381E080F180CF010E94AA0A1D836E
:1004E0000C832A813B81215031093B832A831C865E
:1004F000C7010FC0E881F9810484F585E02DCE01A4
:10050000DF91CF911F910F91FF90EF90199480E0B0
:1005100090E0DF91CF911F910F91FF90EF900895A0
:10052000DC01ED91FD918081ED91FD919081ED9146
:10053000FD916C9163708E2309F064609F2309F034
:100540006860EDEAF2E0E60FF11D659565956D9343
:100550006D917D918D919D91099423C01AC012C017
:1005600016C010C01EC009C014C013C006C019C0F8
:1005700009C00DC007C00DC014C06250704080405B
:1005800090400BC0615070408040904006C06E5F4C
:1005900001C06F5F7F4F8F4F9F4F9E938E937E93CF
:1005A0006E9308958091900290919102B9CF8091BD
:1005B0008E0290918F02B4CF80918802909189022F
:1005C000AFCF8091860290918702AACF0F931F939D
:1005D000CF93DF93EC0162E082E00E94790C62E04D
:1005E00083E00E94790CE8ECF1E0E491F0E0EE0F9A
:1005F000FF1FE45FFD4F8591949199838883E2E822
:10060000F1E0E491EC83E9ECF1E0E491F0E0EE0F4D
:10061000FF1FE45FFD4F859194919B838A83E3E8FC
:10062000F1E0E491ED831F82188619861A8680ED29
:1006300097E0DCD7E881F98190818C81982381E073
:1006400009F480E0EA81FB8190812D81922309F0F9
:1006500082608E831B86D0938702C093860241E01E
:1006600050E061EE72E080E09FD58B858F5F8B87D5
:10067000D0938902C093880241E050E06CED72E0B3
:1006800081E092D58B858F5F8B8762E083E10E944A
:10069000790C62E082E10E94790CE9EDF1E0E491ED
:1006A000F0E0EE0FFF1FE45FFD4F859194919D8771
:1006B0008C87E3E9F1E0E491E88BE8EDF1E0E49187
:1006C000F0E0EE0FFF1FE45FFD4F859194919F874F
:1006D0008E87E2E9F1E0E491E98B1B8A1C8A1D8A8E
:1006E0001E8A80ED97E082D7EC85FD859081888910
:1006F000982381E009F480E0EE85FF8590812989C7
:10070000922309F082608A8B1F8A8E01045F1F4F3B
:1007100010938F0200938E0241E050E067ED72E08B
:1007200084E042D58F898F5F8F8B10939102009365
:10073000900241E050E062ED72E085E035D58F89AE
:100740008F5F8F8B81E088A38AE392E09AA389A3CD
:100750001EA21DA218A61FA21CA21BA21AA619A6A1
:100760001CA61BA61DA6188E198E1A8E1B8E1C8EFB
:100770001D8E1E8E1F8EDF91CF911F910F910895B8
:100780000F931F93CF93DF938B01EA0177FF05C08F
:1007900089E099D760E070E005C060E070E089E032
:1007A00092D7B80188E08FD7BE01D7FF06C089E095
:1007B0008AD760E070E088E005C088E084D760E018
:1007C00070E089E0DF91CF911F910F917CC74F922C
:1007D0005F926F927F928F929F92AF92BF92CF92D1
:1007E000DF92EF92FF920F931F93CF93DF93EC0171
:1007F000CB01BA014801590120E030E04FE753E452
:100800000E9465126B017C0120E030E04FE753E469
:10081000C501B4010E9465124B015C019B01AC0152
:10082000C701B6010E947F110E94E3112B013C0118
:10083000A5019401C701B6010E947E110E94E31137
:10084000A201CE01DF91CF911F910F91FF90EF9008
:10085000DF90CF90BF90AF909F908F907F906F90E0
:100860005F904F908DCFFC01A481B5818485882352
:1008700041F022853385621773071CF0A085B1858E
:100880000BC020E030E008C01097A1F012960D9048
:10089000BC91A02D2F5F3F4F26173707ACF32617CB
:1008A000370741F481E0848733872287B187A087A7
:1008B000CD01089580E090E00895CF92DF92EF920D
:1008C000FF920F931F93CF93DF93EC016B017A019B
:1008D0008A819B816817790734F0E881F981048067
:1008E000F581E02D08C06115710581F4E881F98179
:1008F0000680F781E02DB701CE01DF91CF911F91E6
:100900000F91FF90EF90DF90CF90199484E090E0EA
:100910001FD68C01FC011182108213821282B60153
:1009200061507109CE019FDFF801F182E082FC0184
:1009300022813381F80133832283FC0113830283F4
:100940008A819B8101969B838A831C8681E0DF914B
:10095000CF911F910F91FF90EF90DF90CF9008956E
:10096000CF93DF93EA0177FD0CC0FC012281338134
:100970006217730734F477DFFC01D183C08381E011
:1009800001C080E0DF91CF9108950F931F93CF9323
:10099000DF93EC0177FD39C08A819B816817790765
:1009A000A4F56115710531F4E881F9810684F785B4
:1009B000E02D09C001976817790759F4E881F9819A
:1009C0000484F585E02DCE01DF91CF911F910F9129
:1009D000199461507109CE0146DFDC011296ED9148
:1009E000FC911397008111812281338113963C93EE
:1009F0002E931297CF01AED52A813B812150310928
:100A00003B832A831C86C80102C080E090E0DF910E
:100A1000CF911F910F910895EF92FF920F931F9323
:100A2000CF93DF93EC016A817B811616170664F57C
:100A30001C8661307105D1F06250710914DF8C01A0
:100A4000DC011296ED91FC911397E080F180CF01CB
:100A500081D5F801138212821F830E832A813B8184
:100A6000215031093B832A83C70110C0EC81FD81ED
:100A700000811181CF016ED51D821C821F821E82D2
:100A80001B821A82C80102C080E090E0DF91CF9102
:100A90001F910F91FF90EF900895E5DE009721F0F0
:100AA000FC0180819181089580E090E008950C948C
:100AB000690F08958091920290919302892B39F4E5
:100AC00086E090E045D590939302809392028091C6
:100AD0009202909193020895CF93DF938EE290E07B
:100AE00037D5EC0173DDE0919202F0919302D1834E
:100AF000C08383E090E02CD5EC01D9DFE091920235
:100B0000F0919302D383C28381E090E021D5EC0180
:100B1000D0DFE0919202F0919302D583C483DF91FC
:100B2000CF910895FC01828193810895CF93DF9343
:100B3000EC01E881F9810190F081E02DCE01199559
:100B40001816190644F4E881F9810684F785E02D2A
:100B5000CE011995EECFDF91CF9108950F931F939A
:100B6000CF93DF93EC018B0184E090E0F1D4FC01A2
:100B700013821282118300832C813D81232B29F063
:100B8000EE81FF819383828302C09D838C839F8348
:100B90008E838A819B8101969B838A831C8681E058
:100BA000DF91CF911F910F9108950F931F93CF93D2
:100BB000DF931F921F92CDB7DEB78C01DC01129636
:100BC0008D919C911397892B69F4ED91FC91048090
:100BD000F581E02DC8010F900F90DF91CF911F910B
:100BE0000F91199484E090E069837A83B1D4F8017D
:100BF00024813581DC0113963C932E9312976981F1
:100C00007A816D937C93958384838281938101960D
:100C100093838283148681E00F900F90DF91CF91B0
:100C20001F910F910895EF92FF920F931F93CF930F
:100C3000DF93EC018A819B811816190614F5019740
:100C400099F0EC81FD8102811381E080F180CF0178
:100C500081D41D830C832A813B81215031093B8340
:100C60002A831C86C7010FC0E881F9810484F585B9
:100C7000E02DCE01DF91CF911F910F91FF90EF906A
:100C8000199480E090E0DF91CF911F910F91FF9038
:100C9000EF9008958091940290919502892BB9F478
:100CA0008DE090E055D4FC0182E592E09183808351
:100CB0001582148217821682138212821186108680
:100CC000138612861486F0939502E0939402809125
:100CD00094029091950208950F931F93CF93DF9301
:100CE0008C01EB0161E0CE0129DBBE01C801DF917F
:100CF000CF911F910F9132CFFC01A481B5818485E2
:100D0000882341F022853385621773071CF0A08584
:100D1000B1850BC020E030E008C01097A1F012961A
:100D20000D90BC91A02D2F5F3F4F26173707ACF3D6
:100D30002617370741F481E0848733872287B187FC
:100D4000A087CD01089580E090E00895D5DF009759
:100D500021F0FC0180819181089580E090E0089568
:100D60000F931F93CF93DF93EC0177FD39C08A81F6
:100D70009B8168177907A4F56115710531F4E88145
:100D8000F9810684F785E02D09C001976817790776
:100D900059F4E881F9810484F585E02DCE01DF91D5
:100DA000CF911F910F91199461507109CE01A4DF69
:100DB000DC011296ED91FC91139700811181228143
:100DC000338113963C932E931297CF01C3D32A817C
:100DD0003B81215031093B832A831C86C80102C014
:100DE00080E090E0DF91CF911F910F910895CF9215
:100DF000DF92EF92FF920F931F93CF93DF938C01BB
:100E0000DC011296CD90DC901397C0E0D0E0CC15B9
:100E1000DD05F4F4BE01C80199DF7C01DC01ED9130
:100E2000FC910084F185E02D1995882359F0BE01CD
:100E3000C80196DFF801C280D380C7017CDA811136
:100E4000E6CF06C0C70177DA882311F02196DFCFFD
:100E5000DF91CF911F910F91FF90EF90DF90CF9096
:100E60000895EF92FF920F931F93CF93DF93EC01BE
:100E70006A817B811616170664F51C866130710540
:100E8000D1F06250710938DF8C01DC011296ED91CE
:100E9000FC911397E080F180CF015CD3F8011382BD
:100EA00012821F830E832A813B81215031093B83AB
:100EB0002A83C70110C0EC81FD8100811181CF011F
:100EC00049D31D821C821F821E821B821A82C80186
:100ED00002C080E090E0DF91CF911F910F91FF90D1
:100EE000EF900895CF92DF92EF92FF920F931F93AE
:100EF000CF93DF93EC016B017A018A819B816817A4
:100F0000790734F0E881F9810480F581E02D08C08B
:100F10006115710581F4E881F9810680F781E02D82
:100F2000B701CE01DF91CF911F910F91FF90EF900C
:100F3000DF90CF90199484E090E00AD38C01FC01FB
:100F40001182108213821282B60161507109CE01A2
:100F5000D3DEF801F182E082FC0122813381F801C5
:100F600033832283FC01138302838A819B81019650
:100F70009B838A831C8681E0DF91CF911F910F9123
:100F8000FF90EF90DF90CF900895CF93DF93EA0129
:100F900077FD0CC0FC01228133816217730734F4A2
:100FA000ABDEFC01D183C08381E001C080E0DF9132
:100FB000CF910895CF93DF938091960290919702FD
:100FC0008BDD8CE090E0C4D2EC0160E070E0DCD915
:100FD000BE018091980290919902DF91CF917CCED1
:100FE000809198029091990202CF54DE90939902D9
:100FF000809398025FDD9093970280939602089504
:101000001F920F920FB60F9211240BB60F922F93CF
:101010008F939F93EF93FF93E091AA02F091AB021D
:101020008081E091B002F091B10282FD12C0908106
:101030008091B3028F5F8F732091B402821751F0B9
:10104000E091B302F0E0E656FD4F958F8093B30236
:1010500001C08081FF91EF919F918F912F910F900F
:101060000BBE0F900FBE0F901F9018951F920F92FE
:101070000FB60F9211240BB60F922F933F934F93FD
:101080005F936F937F938F939F93AF93BF93EF93F0
:10109000FF938AE992E004D5FF91EF91BF91AF9160
:1010A0009F918F917F916F915F914F913F912F9180
:1010B0000F900BBE0F900FBE0F901F9018958AE9EE
:1010C00092E085D421E0892B09F420E0822F089555
:1010D00010929D0210929C0288EE93E0A0E0B0E096
:1010E00080939E0290939F02A093A002B093A102CE
:1010F0008AE692E090939B0280939A0285EC90E0BE
:101100009093A7028093A60284EC90E09093A902AA
:101110008093A80280EC90E09093AB028093AA02A7
:1011200081EC90E09093AD028093AC0282EC90E071
:101130009093AF028093AE0286EC90E09093B10260
:101140008093B0021092B3021092B4021092B502D2
:101150001092B6020895CF92DF92EF92FF920F9312
:101160001F93CF93DF937C016A01EB0100E010E055
:101170000C151D0571F06991D701ED91FC9101905D
:10118000F081E02DC7011995892B19F00F5F1F4FD2
:10119000EFCFC801DF91CF911F910F91FF90EF909A
:1011A000DF90CF9008950895883008F06DC0E82F43
:1011B000F0E0EE0FFF1FE65FFD4F7183608390E06C
:1011C000FC013197E730F10590F5EE58FF4F0C9494
:1011D0007411809169008C7F842B80936900E89A58
:1011E000089580916900440F551F440F551F837F58
:1011F000842B80936900E99A08958091690074E0D6
:10120000440F551F7A95E1F78F7C842B80936900FA
:10121000EA9A08958091690066E0440F551F6A9527
:10122000E1F78F73842B80936900EB9A0895809186
:101230006A008C7F842B80936A00EC9A08958091D9
:101240006A00440F551F440F551F837F842B8093E2
:101250006A00ED9A089580916A0024E0440F551FBA
:101260002A95E1F78F7C842B80936A00EE9A08958B
:1012700080916A0096E0440F551F9A95E1F78F73AD
:10128000842B80936A00EF9A08951F920F920FB6F5
:101290000F9211240BB60F922F933F934F935F93AE
:1012A0006F937F938F939F93AF93BF93EF93FF932E
:1012B000E0910E02F0910F021995FF91EF91BF910D
:1012C000AF919F918F917F916F915F914F913F91DE
:1012D0002F910F900BBE0F900FBE0F901F9018957F
:1012E0001F920F920FB60F9211240BB60F922F93ED
:1012F0003F934F935F936F937F938F939F93AF939E
:10130000BF93EF93FF93E0911002F09111021995B2
:10131000FF91EF91BF91AF919F918F917F916F91CD
:101320005F914F913F912F910F900BBE0F900FBE89
:101330000F901F9018951F920F920FB60F921124C5
:101340000BB60F922F933F934F935F936F937F93BF
:101350008F939F93AF93BF93EF93FF93E09112020C
:10136000F09113021995FF91EF91BF91AF919F9169
:101370008F917F916F915F914F913F912F910F903E
:101380000BBE0F900FBE0F901F9018951F920F92DB
:101390000FB60F9211240BB60F922F933F934F93DA
:1013A0005F936F937F938F939F93AF93BF93EF93CD
:1013B000FF93E0911402F09115021995FF91EF91BE
:1013C000BF91AF919F918F917F916F915F914F915D
:1013D0003F912F910F900BBE0F900FBE0F901F905B
:1013E00018951F920F920FB60F9211240BB60F9201
:1013F0002F933F934F935F936F937F938F939F931D
:10140000AF93BF93EF93FF93E0910A02F0910B0229
:101410001995FF91EF91BF91AF919F918F917F911E
:101420006F915F914F913F912F910F900BBE0F9055
:101430000FBE0F901F9018951F920F920FB60F922C
:1014400011240BB60F922F933F934F935F936F939B
:101450007F938F939F93AF93BF93EF93FF93E0910D
:101460000C02F0910D021995FF91EF91BF91AF9190
:101470009F918F917F916F915F914F913F912F91AC
:101480000F900BBE0F900FBE0F901F9018951F92DC
:101490000F920FB60F9211240BB60F922F933F931A
:1014A0004F935F936F937F938F939F93AF93BF936C
:1014B000EF93FF93E0911602F09117021995FF91B7
:1014C000EF91BF91AF919F918F917F916F915F91BC
:1014D0004F913F912F910F900BBE0F900FBE0F9029
:1014E0001F9018951F920F920FB60F9211240BB6F2
:1014F0000F922F933F934F935F936F937F938F93AD
:101500009F93AF93BF93EF93FF93E0911802F091F5
:1015100019021995FF91EF91BF91AF919F918F9112
:101520007F916F915F914F913F912F910F900BBEE3
:101530000F900FBE0F901F901895089562D0FDDF99
:1015400039DDC4E1DDE04CDD2097E9F36DD2FBCF5E
:101550000C94C8120C9460131F920F920FB60F9246
:1015600011242F933F938F939F93AF93BF938091B9
:10157000380390913903A0913A03B0913B03309125
:10158000370323E0230F2D3720F40196A11DB11D51
:1015900005C026E8230F0296A11DB11D2093370335
:1015A0008093380390933903A0933A03B0933B039D
:1015B00080913C0390913D03A0913E03B0913F0385
:1015C0000196A11DB11D80933C0390933D03A09310
:1015D0003E03B0933F03BF91AF919F918F913F9195
:1015E0002F910F900FBE0F901F901895823091058C
:1015F00038F0880F991F880F991F05970197F1F709
:101600000895789484B5826084BD84B5816084BD7A
:1016100085B5826085BD85B5816085BDEEE6F0E06B
:10162000808181608083E1E8F0E0108280818260C7
:101630008083808181608083E0E8F0E08081816048
:101640008083E1EBF0E0808184608083E0EBF0E078
:10165000808181608083E1E9F0E080818260808325
:10166000808181608083E0E9F0E080818160808317
:10167000E1EAF0E080818260808380818160808304
:10168000E0EAF0E0808181608083E1E2F1E0808146
:1016900082608083808181608083E0E2F1E08081EC
:1016A00081608083EAE7F0E08081846080838081CC
:1016B0008260808380818160808380818068808374
:1016C0001092C10008951F93CF93DF93182FEB0161
:1016D00061E00FD1209711F460E004C0CF3FD10545
:1016E00031F461E0812FDF91CF911F913BC1E12F58
:1016F000F0E0E65CFE4F449150E0FA013197E231B0
:10170000F10508F09AC0E758FF4FEEC584B5806830
:1017100084BDC7BD97C084B5806284BDC8BD92C07A
:1017200080918000806880938000D0938900C0936E
:10173000880088C080918000806280938000D09370
:101740008B00C0938A007EC0809180008860809367
:101750008000D0938D00C0938C0074C08091B00045
:1017600080688093B000C093B3006CC08091B000DB
:1017700080628093B000C093B40064C080919000F8
:10178000806880939000D0939900C09398005AC0CD
:1017900080919000806280939000D0939B00C093D2
:1017A0009A0050C080919000886080939000D09300
:1017B0009D00C0939C0046C08091A00080688093EB
:1017C000A0008091A0008F7B8093A000D093A900FF
:1017D000C093A80037C08091A00080628093A000D1
:1017E000D093AB00C093AA002DC08091A000886068
:1017F0008093A000D093AD00C093AC0023C0809133
:101800002001806880932001D0932901C093280192
:1018100019C080912001806280932001D0932B0118
:10182000C0932A010FC0809120018860809320011D
:10183000D0932D01C0932C0105C0C038D1050CF008
:1018400050CF4ACFDF91CF911F91089590E0FC01D6
:101850003197E231F10508F04BC0E557FF4F44C521
:10186000809180008F7703C0809180008F7D80936E
:101870008000089580918000877FF9CF84B58F77AD
:1018800002C084B58F7D84BD08958091B0008F77AC
:1018900003C08091B0008F7D8093B0000895809147
:1018A00090008F7707C0809190008F7D03C080915A
:1018B0009000877F8093900008958091A0008F779B
:1018C00007C08091A0008F7D03C08091A000877F1A
:1018D0008093A0000895809120018F7707C08091A8
:1018E00020018F7D03C080912001877F809320019C
:1018F0000895CF93DF9390E0FC01E058FE4F2491D0
:10190000FC01EA53FE4F8491882349F190E0880F4F
:10191000991FFC01E05CFD4FA591B4918A5D9D4F3C
:10192000FC01C591D4919FB7611108C0F8948C91C6
:10193000209582238C93888182230AC0623051F4DF
:10194000F8948C91322F309583238C938881822B4D
:10195000888304C0F8948C91822B8C939FBFDF9175
:10196000CF9108950F931F93CF93DF931F92CDB71D
:10197000DEB7282F30E0F901E65CFE4F8491F901D3
:10198000E058FE4F1491F901EA53FE4F04910023F1
:10199000C1F0882319F0698359DF6981E02FF0E0F5
:1019A000EE0FFF1FEA5DFD4FA591B4919FB7F8942C
:1019B0008C91611103C01095812301C0812B8C9300
:1019C0009FBF0F90DF91CF911F910F910895FC0160
:1019D000818D228D90E0805C9F4F821B91098F73D7
:1019E00099270895FC01918D828D981731F0828D91
:1019F000E80FF11D858D90E008958FEF9FEF08951A
:101A0000FC01918D828D981761F0828DDF01A80F06
:101A1000B11D5D968C91928D9F5F9F73928F90E028
:101A200008958FEF9FEF08958FE598E0892B39F0A7
:101A300080E090E0892B19F042DB811125C080E025
:101A400090E0892B41F080E090E0892B21F00E940A
:101A5000000081111CC080E090E0892B41F080E003
:101A600090E0892B21F00E940000811113C080E0DA
:101A700090E0892BA1F080E090E0892B81F00E941A
:101A8000000081110AC008950E940000D8CF0E9472
:101A90000000E1CF0E940000EACF0C9400000895FE
:101AA000FC01848DDF01A80FB11DA35ABF4F2C91FB
:101AB000848D90E001968F739927848FA689B789CA
:101AC0002C93A089B1898C9180648C93938D848DA3
:101AD000981306C00288F389E02D80818F7D808372
:101AE0000895CF93DF93EC01888D8823C1F0EA89B4
:101AF000FB89808185FD05C0A889B9898C9186FD07
:101B00000EC00FB607FCF5CF808185FFF2CFA88904
:101B1000B9898C9185FFEDCFCE01C2DFE8CFDF918F
:101B2000CF910895CF92DF92FF920F931F93CF939F
:101B3000DF931F92CDB7DEB76C0181E0D6015896D6
:101B40008C9358975B969C915B975C968C915C9775
:101B5000981307C05096ED91FC915197808185FDB7
:101B60002DC0F601038D10E00F5F1F4F0F7311277B
:101B7000F02EF601848DF81210C00FB607FCF9CFD5
:101B8000D6015096ED91FC915197808185FFF1CF60
:101B9000C601698385DF6981ECCF838DE80FF11D74
:101BA000E35AFF4F6083D6015B960C935B97529686
:101BB000ED91FC915397808180620CC0D6015696BE
:101BC000ED91FC91579760835096ED91FC91519760
:101BD00080818064808381E090E00F90DF91CF91DD
:101BE0001F910F91FF90DF90CF900895CF92DF92D9
:101BF000EF92FF920F931F93CF93DF936C018B01B2
:101C00007A01EC01CF5BDC4F888187FF04C0FB01C8
:101C10001182108223C02CE02C9DC0012D9D900DBF
:101C200011242881AC01420F511D27FD5A952091A6
:101C3000400330E0421753078CF42881AC01420F77
:101C4000511D27FD5A959A01FA01EE0FFF1FE20F71
:101C5000F31FEB5BFC4F208126FD19C088818F5F4D
:101C600088838CE08C9D90018D9D300D112488819E
:101C7000A901480F511D87FD5A958091400390E0BE
:101C800048175907ACF488818C3034F111C0288191
:101C9000820F911D27FD9A95FC01EE0FFF1FE80FA3
:101CA000F91FEB5BFC4F808160E08F735BDED6CF6A
:101CB000F80180819181049680349C4918F480E475
:101CC0009CE904C0F801808191810496F701918319
:101CD00080838FEF888340C0F801808191814881A3
:101CE000B901640F711D47FD7A95AB01FB01EE0F41
:101CF000FF1FE40FF51FEB5BFC4F41815281840F06
:101D0000951FF701918380838881A901480F511D98
:101D100087FD5A95FA01EE0FFF1FE40FF51FEB5BED
:101D2000FC4F808186FF18C08881280F311D87FDF8
:101D30003A95F901EE0FFF1FE20FF31FEB5BFC4F2B
:101D4000808161E08F73DF91CF911F910F91FF90A0
:101D5000EF90DF90CF9006CEDF91CF911F910F9142
:101D6000FF90EF90DF90CF9008951F920F920FB6E3
:101D70000F9211240BB60F922F933F934F935F93C3
:101D80006F937F938F939F93AF93BF93EF93FF9343
:101D900048E850E064E870E081E090E027DFFF91E0
:101DA000EF91BF91AF919F918F917F916F915F91D3
:101DB0004F913F912F910F900BBE0F900FBE0F9040
:101DC0001F9018951F920F920FB60F9211240BB609
:101DD0000F922F933F934F935F936F937F938F93C4
:101DE0009F93AF93BF93EF93FF9348E950E064E96B
:101DF00070E082E090E0FADEFF91EF91BF91AF9149
:101E00009F918F917F916F915F914F913F912F9112
:101E10000F900BBE0F900FBE0F901F9018951F9242
:101E20000F920FB60F9211240BB60F922F933F9380
:101E30004F935F936F937F938F939F93AF93BF93D2
:101E4000EF93FF9348EA50E064EA70E083E090E0AB
:101E5000CDDEFF91EF91BF91AF919F918F917F91D7
:101E60006F915F914F913F912F910F900BBE0F900B
:101E70000FBE0F901F9018951F920F920FB60F92E2
:101E800011240BB60F922F933F934F935F936F9351
:101E90007F938F939F93AF93BF93EF93FF9348E20A
:101EA00051E064E271E080E090E0A0DEFF91EF910C
:101EB000BF91AF919F918F917F916F915F914F9162
:101EC0003F912F910F900BBE0F900FBE0F901F9060
:101ED0001895209140032033A0F431E0320F309365
:101EE0004003FC012083822F90E0FC01EE0FFF1FD6
:101EF000E80FF91FEB5BFC4F88EB9BE0928381833B
:101F000008952FEFFC01208308958091040490E050
:101F100020910504821B9109089520910504809168
:101F20000404281750F4E22FF0E0EA5FFB4F8081B1
:101F300090E02F5F2093050408958FEF9FEF0895A1
:101F4000E091050480910404E81730F4F0E0EA5FC2
:101F5000FB4F808190E008958FEF9FEF08950895E3
:101F6000CF92DF92EF92FF920F931F93CF93DF9365
:101F70007C01CB018A012091E103222389F0EB014E
:101F80006B01C40ED51ECC15DD0561F06991D7013A
:101F9000ED91FC910190F081E02DC7011995F3CFEF
:101FA000642F4BD0C801DF91CF911F910F91FF900B
:101FB000EF90DF90CF900895CF93DF931F92CDB72E
:101FC000DEB769832091E1032223D1F02091E2035F
:101FD000203240F021E030E0FC013383228380E0B6
:101FE00090E014C08091E303E82FF0E0EC51FC4F47
:101FF000998190838F5F8093E3038093E20304C011
:1020000061E0CE01019619D081E090E00F90DF9160
:10201000CF910895FC011382128248EE53E060E0F4
:1020200070E044835583668377838AE792E09183E7
:102030008083089585ED93E0EDCF613298F420918F
:102040009304243089F460934804FC018AE494E00A
:10205000DC012A2F281B261718F421912D93F9CF84
:1020600080E0089581E0089582E0089585ED8093F1
:10207000BC008091BC0084FDFCCF109293040895B5
:1020800085EC8093BC001092930408951F920F92E8
:102090000FB60F9211240BB60F922F933F934F93CD
:1020A0005F936F937F938F939F93AF93BF93EF93C0
:1020B000FF938091B900887F803609F49DC070F548
:1020C000883209F45CC090F4803109F455C038F4CA
:1020D000882309F4F3C0883009F44EC0F2C0883177
:1020E00009F44DC0803209F45EC0EBC0803409F4BD
:1020F00069C050F4803309F456C0883309F0E1C058
:1021000080932604BDDFDDC0803509F44FC08835DB
:1021100009F45DC0883409F0D4C0D2C0883909F40C
:10212000C3C0A8F4883709F467C038F4883609F4C6
:1021300063C0803709F460C0C4C0883809F4B4C0F3
:10214000803909F45FC0803809F0BBC05BC0803BB8
:1021500009F482C038F4803A09F466C0883A09F478
:102160007BC0AFC0803C09F4A3C0883C09F4A0C088
:10217000883B09F486C0A5C08091920410C090915C
:102180006B0480916A04981770F5E0916B0481E00C
:102190008E0F80936B04F0E0E459FB4F80818093B5
:1021A000BB0085EC82C0809326048AC0E0916B045A
:1021B00081E08E0F80936B048091BB00F0E0E459C6
:1021C000FB4F808390916B0480916A046AC0E09118
:1021D0006B0481E08E0F80936B048091BB00F0E074
:1021E000E459FB4F808380919104811169C081E0A3
:1021F0008093900484EA5DC083E0809393041092FE
:102200002704CFCF80912704803208F04DC0E091A1
:10221000270481E08E0F809327048091BB00F0E0BB
:10222000E85DFB4F8083BDCF2BDF80912704803298
:1022300030F4E0912704F0E0E85DFB4F10826091FC
:10224000270470E0E0918C04F0918D0488E294E022
:1022500019951092270435C084E08093930410925E
:10226000490410924804E0918E04F0918F0419956E
:1022700080914804811105C081E080934804109248
:102280004A04E091490481E08E0F80934904F0E014
:10229000E65BFB4F80818093BB0090914904809165
:1022A0004804981708F47DCF85E88093BC0009C0E6
:1022B00085EC8093BC001092930403C01092260416
:1022C000D5DEFF91EF91BF91AF919F918F917F915B
:1022D0006F915F914F913F912F910F900BBE0F9097
:1022E0000FBE0F901F901895EE0FFF1F0590F491F1
:1022F000E02D19940790F691E02D19945058BB27C2
:10230000AA270ED0A8C099D030F09ED020F031F48A
:102310009F3F11F41EF48EC00EF4E095E7FB84C0DD
:10232000E92FAAD080F3BA176207730784079507CD
:1023300018F071F49EF5C2C00EF4E0950B2EBA2F82
:10234000A02D0B01B90190010C01CA01A0011124BB
:10235000FF27591B99F0593F50F4503E68F11A1667
:10236000F040A22F232F342F4427585FF3CF4695F8
:1023700037952795A795F0405395C9F77EF41F161A
:10238000BA0B620B730B840BBAF09150A1F0FF0FE4
:10239000BB1F661F771F881FC2F70EC0BA0F621FD0
:1023A000731F841F48F4879577956795B795F795C0
:1023B0009E3F08F0B3CF9395880F08F09927EE0F52
:1023C00097958795089504D06894B11178C00895C1
:1023D0005BD088F09F5790F0B92F9927B751A0F0A4
:1023E000D1F0660F771F881F991F1AF0BA95C9F7A9
:1023F00012C0B13081F062D0B1E008955FC0672FA4
:10240000782F8827B85F39F0B93FCCF38695779558
:102410006795B395D9F73EF4909580957095619541
:102420007F4F8F4F9F4F089597F99F6780E870E027
:1024300060E008959FEF80EC089500240A9416163A
:10244000170618060906089500240A9412161306A2
:10245000140605060895092E0394000C11F4882330
:1024600052F0BB0F40F4BF2B11F460FF04C06F5F4C
:102470007F4F8F4F9F4F089557FD9058440F551F22
:1024800059F05F3F71F04795880F97FB991F61F0F6
:102490009F3F79F087950895121613061406551F6D
:1024A000F2CF4695F1DF08C0161617061806991FD9
:1024B000F1CF86957105610508940895E894BB27CE
:1024C00066277727CB0197F908950BD0C4CFB5DFE6
:1024D00028F0BADF18F0952309F0A6CFABCF11246E
:1024E000EECFCADFA0F3959FD1F3950F50E0551FB3
:1024F000629FF001729FBB27F00DB11D639FAA2759
:10250000F00DB11DAA1F649F6627B00DA11D661FA7
:10251000829F2227B00DA11D621F739FB00DA11DC8
:10252000621F839FA00D611D221F749F3327A00D82
:10253000611D231F849F600D211D822F762F6A2F1E
:1025400011249F5750408AF0E1F088234AF0EE0FA3
:10255000FF1FBB1F661F771F881F91505040A9F7B0
:102560009E3F510570F060CFAACF5F3FECF3983EDD
:10257000DCF3869577956795B795F795E7959F5F17
:10258000C1F7FE2B880F911D9695879597F90895B1
:10259000CF93DF938230910510F482E090E0E091D8
:1025A0009604F091970420E030E0A0E0B0E030978E
:1025B00039F14081518148175907B8F04817590738
:1025C00071F482819381109729F013969C938E93D6
:1025D00012972CC0909397048093960427C02115DE
:1025E000310531F04217530718F0A901DB0101C092
:1025F000EF019A01BD01DF010280F381E02DD7CF09
:1026000021153105F9F0281B390B2430310580F4F0
:102610008A819B816115710521F0FB01938382837F
:1026200004C09093970480939604FE01329644C0B0
:10263000FE01E20FF31F81939193225031093983F8
:1026400028833AC02091940430919504232B41F4BF
:102650002091020230910302309395042093940458
:1026600020910002309101022115310541F42DB76E
:102670003EB74091040250910502241B350BE091B6
:102680009404F0919504E217F307A0F42E1B3F0B7E
:102690002817390778F0AC014E5F5F4F24173507D4
:1026A00048F04E0F5F1F509395044093940481931C
:1026B000919302C0E0E0F0E0CF01DF91CF91089567
:1026C000CF93DF93009709F487C0FC013297138200
:1026D0001282C0919604D0919704209781F42081B2
:1026E0003181280F391F80919404909195048217AD
:1026F000930779F5F0939504E09394046DC0DE019F
:1027000020E030E0AE17BF0750F412964D915C9177
:1027100013979D014115510509F1DA01F3CFB383F8
:10272000A28340815181840F951F8A179B0771F402
:102730008D919C911197840F951F029691838083B0
:1027400012968D919C911397938382832115310565
:1027500029F4F0939704E09396043EC0D9011396B0
:10276000FC93EE9312974D915D91A40FB51FEA175C
:10277000FB0779F480819181840F951F0296D9011E
:1027800011969C938E938281938113969C938E9342
:102790001297E0E0F0E08A819B81009719F0FE013A
:1027A000EC01F9CFCE01029628813981820F931F67
:1027B00020919404309195042817390769F43097D3
:1027C00029F4109297041092960402C01382128288
:1027D000D0939504C0939404DF91CF910895F89419
:0227E000FFCF29
:1027E20000009804200001000000D308D308D30899
:1027F200D308D308D308D308D3080000000062012D
:102802006601670168016A0100000000A101A401DC
:10281200B801A2016A0100000000D5015D04F101C6
:102822001902B004C5040C0558024D05D901000077
:10283200000092057207AE05D505C507B00631073F
:102842001306A606960500000000920DAB08E70CE1
:10285200000DF20C710D00000000DC0FB00F850FAF
:062862008D0FA00FAF0F67
:00000001FF
